{
  "_format": "hh-sol-artifact-1",
  "contractName": "Arbitrage",
  "sourceName": "contracts/Arbitrage.sol",
  "abi": [
    {
      "inputs": [],
      "stateMutability": "nonpayable",
      "type": "constructor"
    },
    {
      "inputs": [
        {
          "internalType": "bytes",
          "name": "reason",
          "type": "bytes"
        }
      ],
      "name": "FailedExternalCall",
      "type": "error"
    },
    {
      "inputs": [],
      "name": "LOP",
      "outputs": [
        {
          "internalType": "address",
          "name": "",
          "type": "address"
        }
      ],
      "stateMutability": "view",
      "type": "function"
    },
    {
      "inputs": [],
      "name": "OPIUM_CORE",
      "outputs": [
        {
          "internalType": "contract ICore",
          "name": "",
          "type": "address"
        }
      ],
      "stateMutability": "view",
      "type": "function"
    },
    {
      "inputs": [],
      "name": "OPIUM_TOKEN_SPENDER",
      "outputs": [
        {
          "internalType": "address",
          "name": "",
          "type": "address"
        }
      ],
      "stateMutability": "view",
      "type": "function"
    },
    {
      "inputs": [
        {
          "internalType": "bytes",
          "name": "_calldata",
          "type": "bytes"
        }
      ],
      "name": "create",
      "outputs": [],
      "stateMutability": "nonpayable",
      "type": "function"
    },
    {
      "inputs": [
        {
          "components": [
            {
              "internalType": "uint256",
              "name": "salt",
              "type": "uint256"
            },
            {
              "internalType": "Address",
              "name": "maker",
              "type": "uint256"
            },
            {
              "internalType": "Address",
              "name": "receiver",
              "type": "uint256"
            },
            {
              "internalType": "Address",
              "name": "makerAsset",
              "type": "uint256"
            },
            {
              "internalType": "Address",
              "name": "takerAsset",
              "type": "uint256"
            },
            {
              "internalType": "uint256",
              "name": "makingAmount",
              "type": "uint256"
            },
            {
              "internalType": "uint256",
              "name": "takingAmount",
              "type": "uint256"
            },
            {
              "internalType": "MakerTraits",
              "name": "makerTraits",
              "type": "uint256"
            }
          ],
          "internalType": "struct IOrderMixin.Order",
          "name": "order",
          "type": "tuple"
        },
        {
          "internalType": "bytes",
          "name": "extension",
          "type": "bytes"
        },
        {
          "internalType": "bytes32",
          "name": "orderHash",
          "type": "bytes32"
        },
        {
          "internalType": "address",
          "name": "taker",
          "type": "address"
        },
        {
          "internalType": "uint256",
          "name": "makingAmount",
          "type": "uint256"
        },
        {
          "internalType": "uint256",
          "name": "takingAmount",
          "type": "uint256"
        },
        {
          "internalType": "uint256",
          "name": "remainingMakingAmount",
          "type": "uint256"
        },
        {
          "internalType": "bytes",
          "name": "extraData",
          "type": "bytes"
        }
      ],
      "name": "takerInteraction",
      "outputs": [],
      "stateMutability": "nonpayable",
      "type": "function"
    }
  ],
  "bytecode": "0x6080604052348015600f57600080fd5b506112aa8061001f6000396000f3fe608060405234801561001057600080fd5b50600436106100575760003560e01c80636f323b761461005c578063adf38ba11461007a578063b31798cb14610096578063cf5ba53f146100b4578063f8f290dc146100d0575b600080fd5b6100646100ee565b6040516100719190610764565b60405180910390f35b610094600480360381019061008f91906108c7565b610106565b005b61009e6105cb565b6040516100ab91906109d4565b60405180910390f35b6100ce60048036038101906100c99190610b30565b6105e3565b005b6100d86106ad565b6040516100e591906109d4565b60405180910390f35b731497a23a2abc0daffb8e333183cfc181b24bb57081565b60008282600090809261011b93929190610b83565b906101269190610c02565b905060ff60f81b817effffffffffffffffffffffffffffffffffffffffffffffffffffffffffffff1916146102235760008073111111125421ca6dc452d289314280a0f8842a6573ffffffffffffffffffffffffffffffffffffffff168585604051610193929190610c91565b6000604051808303816000865af19150503d80600081146101d0576040519150601f19603f3d011682016040523d82523d6000602084013e6101d5565b606091505b50915091508161021c57806040517f20508f450000000000000000000000000000000000000000000000000000000081526004016102139190610d29565b60405180910390fd5b50506104ff565b60008383600190809261023893929190610b83565b8101906102459190610ed4565b9050806080015173ffffffffffffffffffffffffffffffffffffffff1663095ea7b3730a9a6cd7485dd77c6cec28fb1bd64d5969b791327fffffffffffffffffffffffffffffffffffffffffffffffffffffffffffffffff6040518363ffffffff1660e01b81526004016102ba929190610f2c565b6020604051808303816000875af11580156102d9573d6000803e3d6000fd5b505050506040513d601f19601f820116820180604052508101906102fd9190610f8d565b50731497a23a2abc0daffb8e333183cfc181b24bb57073ffffffffffffffffffffffffffffffffffffffff16637f2743c6828860405180604001604052803073ffffffffffffffffffffffffffffffffffffffff1673ffffffffffffffffffffffffffffffffffffffff1681526020013073ffffffffffffffffffffffffffffffffffffffff1673ffffffffffffffffffffffffffffffffffffffff168152506040518463ffffffff1660e01b81526004016103bb939291906111ac565b600060405180830381600087803b1580156103d557600080fd5b505af11580156103e9573d6000803e3d6000fd5b505050506000816080015173ffffffffffffffffffffffffffffffffffffffff166370a08231306040518263ffffffff1660e01b815260040161042c91906109d4565b602060405180830381865afa158015610449573d6000803e3d6000fd5b505050506040513d601f19601f8201168201806040525081019061046d91906111ff565b905060008111156104fc57816080015173ffffffffffffffffffffffffffffffffffffffff1663a9059cbb32836040518363ffffffff1660e01b81526004016104b7929190610f2c565b6020604051808303816000875af11580156104d6573d6000803e3d6000fd5b505050506040513d601f19601f820116820180604052508101906104fa9190610f8d565b505b50505b61050c8b608001356106c5565b73ffffffffffffffffffffffffffffffffffffffff1663095ea7b373111111125421ca6dc452d289314280a0f8842a657fffffffffffffffffffffffffffffffffffffffffffffffffffffffffffffffff6040518363ffffffff1660e01b815260040161057a929190610f2c565b6020604051808303816000875af1158015610599573d6000803e3d6000fd5b505050506040513d601f19601f820116820180604052508101906105bd9190610f8d565b505050505050505050505050565b73111111125421ca6dc452d289314280a0f8842a6581565b60008073111111125421ca6dc452d289314280a0f8842a6573ffffffffffffffffffffffffffffffffffffffff168360405161061f919061125d565b6000604051808303816000865af19150503d806000811461065c576040519150601f19603f3d011682016040523d82523d6000602084013e610661565b606091505b5091509150816106a857806040517f20508f4500000000000000000000000000000000000000000000000000000000815260040161069f9190610d29565b60405180910390fd5b505050565b730a9a6cd7485dd77c6cec28fb1bd64d5969b7913281565b600073ffffffffffffffffffffffffffffffffffffffff82169050919050565b600073ffffffffffffffffffffffffffffffffffffffff82169050919050565b6000819050919050565b600061072a610725610720846106e5565b610705565b6106e5565b9050919050565b600061073c8261070f565b9050919050565b600061074e82610731565b9050919050565b61075e81610743565b82525050565b60006020820190506107796000830184610755565b92915050565b6000604051905090565b600080fd5b600080fd5b600080fd5b600061010082840312156107af576107ae610793565b5b81905092915050565b600080fd5b600080fd5b600080fd5b60008083601f8401126107dd576107dc6107b8565b5b8235905067ffffffffffffffff8111156107fa576107f96107bd565b5b602083019150836001820283011115610816576108156107c2565b5b9250929050565b6000819050919050565b6108308161081d565b811461083b57600080fd5b50565b60008135905061084d81610827565b92915050565b600061085e826106e5565b9050919050565b61086e81610853565b811461087957600080fd5b50565b60008135905061088b81610865565b92915050565b6000819050919050565b6108a481610891565b81146108af57600080fd5b50565b6000813590506108c18161089b565b92915050565b6000806000806000806000806000806101e08b8d0312156108eb576108ea610789565b5b60006108f98d828e01610798565b9a50506101008b013567ffffffffffffffff81111561091b5761091a61078e565b5b6109278d828e016107c7565b995099505061012061093b8d828e0161083e565b97505061014061094d8d828e0161087c565b96505061016061095f8d828e016108b2565b9550506101806109718d828e016108b2565b9450506101a06109838d828e016108b2565b9350506101c08b013567ffffffffffffffff8111156109a5576109a461078e565b5b6109b18d828e016107c7565b92509250509295989b9194979a5092959850565b6109ce81610853565b82525050565b60006020820190506109e960008301846109c5565b92915050565b600080fd5b6000601f19601f8301169050919050565b7f4e487b7100000000000000000000000000000000000000000000000000000000600052604160045260246000fd5b610a3d826109f4565b810181811067ffffffffffffffff82111715610a5c57610a5b610a05565b5b80604052505050565b6000610a6f61077f565b9050610a7b8282610a34565b919050565b600067ffffffffffffffff821115610a9b57610a9a610a05565b5b610aa4826109f4565b9050602081019050919050565b82818337600083830152505050565b6000610ad3610ace84610a80565b610a65565b905082815260208101848484011115610aef57610aee6109ef565b5b610afa848285610ab1565b509392505050565b600082601f830112610b1757610b166107b8565b5b8135610b27848260208601610ac0565b91505092915050565b600060208284031215610b4657610b45610789565b5b600082013567ffffffffffffffff811115610b6457610b6361078e565b5b610b7084828501610b02565b91505092915050565b600080fd5b600080fd5b60008085851115610b9757610b96610b79565b5b83861115610ba857610ba7610b7e565b5b6001850283019150848603905094509492505050565b600082905092915050565b60007fff0000000000000000000000000000000000000000000000000000000000000082169050919050565b600082821b905092915050565b6000610c0e8383610bbe565b82610c198135610bc9565b92506001821015610c5957610c547fff0000000000000000000000000000000000000000000000000000000000000083600103600802610bf5565b831692505b505092915050565b600081905092915050565b6000610c788385610c61565b9350610c85838584610ab1565b82840190509392505050565b6000610c9e828486610c6c565b91508190509392505050565b600081519050919050565b600082825260208201905092915050565b60005b83811015610ce4578082015181840152602081019050610cc9565b60008484015250505050565b6000610cfb82610caa565b610d058185610cb5565b9350610d15818560208601610cc6565b610d1e816109f4565b840191505092915050565b60006020820190508181036000830152610d438184610cf0565b905092915050565b600080fd5b600080fd5b600067ffffffffffffffff821115610d7057610d6f610a05565b5b602082029050602081019050919050565b6000610d94610d8f84610d55565b610a65565b90508083825260208201905060208402830185811115610db757610db66107c2565b5b835b81811015610de05780610dcc88826108b2565b845260208401935050602081019050610db9565b5050509392505050565b600082601f830112610dff57610dfe6107b8565b5b8135610e0f848260208601610d81565b91505092915050565b600060c08284031215610e2e57610e2d610d4b565b5b610e3860c0610a65565b90506000610e48848285016108b2565b6000830152506020610e5c848285016108b2565b602083015250604082013567ffffffffffffffff811115610e8057610e7f610d50565b5b610e8c84828501610dea565b6040830152506060610ea08482850161087c565b6060830152506080610eb48482850161087c565b60808301525060a0610ec88482850161087c565b60a08301525092915050565b600060208284031215610eea57610ee9610789565b5b600082013567ffffffffffffffff811115610f0857610f0761078e565b5b610f1484828501610e18565b91505092915050565b610f2681610891565b82525050565b6000604082019050610f4160008301856109c5565b610f4e6020830184610f1d565b9392505050565b60008115159050919050565b610f6a81610f55565b8114610f7557600080fd5b50565b600081519050610f8781610f61565b92915050565b600060208284031215610fa357610fa2610789565b5b6000610fb184828501610f78565b91505092915050565b610fc381610891565b82525050565b600081519050919050565b600082825260208201905092915050565b6000819050602082019050919050565b60006110018383610fba565b60208301905092915050565b6000602082019050919050565b600061102582610fc9565b61102f8185610fd4565b935061103a83610fe5565b8060005b8381101561106b5781516110528882610ff5565b975061105d8361100d565b92505060018101905061103e565b5085935050505092915050565b61108181610853565b82525050565b600060c08301600083015161109f6000860182610fba565b5060208301516110b26020860182610fba565b50604083015184820360408601526110ca828261101a565b91505060608301516110df6060860182611078565b5060808301516110f26080860182611078565b5060a083015161110560a0860182611078565b508091505092915050565b600060029050919050565b600081905092915050565b6000819050919050565b600061113c8383611078565b60208301905092915050565b6000602082019050919050565b61115e81611110565b611168818461111b565b925061117382611126565b8060005b838110156111a457815161118b8782611130565b965061119683611148565b925050600181019050611177565b505050505050565b600060808201905081810360008301526111c68186611087565b90506111d56020830185610f1d565b6111e26040830184611155565b949350505050565b6000815190506111f98161089b565b92915050565b60006020828403121561121557611214610789565b5b6000611223848285016111ea565b91505092915050565b600061123782610caa565b6112418185610c61565b9350611251818560208601610cc6565b80840191505092915050565b6000611269828461122c565b91508190509291505056fea2646970667358221220bb74620b20c781c34dc2bfd70cb5eb524edd0a0311ccdf9287f9c1aed9e2b5c164736f6c634300081c0033",
  "linkReferences": {},
  "deployedLinkReferences": {}
}